:100000000C942A000C9447000C9447000C94470071
:100010000C9447000C9447000C9447000C94470044
:100020000C9447000C9447000C9447000C94470034
:100030000C9447000C9447000C9447000C94470024
:100040000C9447000C9447000C9447000C94470014
:100050000C94470011241FBECFE5D8E0DEBFCDBF12
:1000600010E0A0E6B0E0EEE6F4E002C005900D92EC
:10007000AC3AB107D9F710E0ACEAB0E001C01D928C
:10008000AE3AB107E1F70E9483000C9435020C945C
:100090000000959A0000000082B3807C82BB089526
:1000A00017BA979A82B3887F82BB02C00E94490028
:1000B000C799FCCF8FEF87BB08951F93182F0E941D
:1000C000500018BB82B38B7782BB0E94490018BADC
:1000D0001F9108951F93182F0E94500018BB9798E6
:1000E000929A0E94490018BA1F910895CF93DF9306
:1000F000EC0103C021960E946A0088818823D1F711
:10010000DF91CF9108952F923F924F925F926F921D
:100110007F928F929F92AF92BF92CF92DF92EF9297
:10012000FF920F931F93DF93CF93CDB7DEB76C97FA
:100130000FB6F894DEBF0FBECDBFA79A85B3806C13
:1001400085BB81B3846A81BB80E395E70197F1F7B2
:1001500081E00E945D0060EAE62E6FE0F62EC701A6
:100160000197F1F788E30E945D0015E8812F8A95D9
:10017000F1F78EE00E945D001A95F1F781E00E9490
:100180005D00C7010197F1F780E690E00E947600DC
:1001900084EF91E028EC30E0F9013197F1F7019715
:1001A000D9F788E690E00E94760084EF91E028EC91
:1001B00030E0F9013197F1F70197D9F788E690E03F
:1001C0000E94760084EF91E028EC30E0F90131974D
:1001D000F1F70197D9F788E690E00E94760080ED6C
:1001E00097E028EC30E0F9013197F1F70197D9F762
:1001F0001092AD001092AC0081E00E945D0080EA98
:100200009FE00197F1F78AE690E00E94760088EB84
:100210009BE028EC30E0F9013197F1F70197D9F72D
:1002200081E00E945D0000EA1FE0C8010197F1F73C
:100230008EB581608EBD1DBC1CBC81E00E945D003E
:10024000C8010197F1F789E790E00E947600CC247D
:10025000DD2400E010E0AA24BB24EE24FF2488243F
:10026000992459E0652E712C6C0E7D1E44EF242ECE
:1002700041E0342E30E4432E3FE1532E9E9925C0B9
:100280000F5F1F4F21E0013912075CF1C114D10447
:10029000B1F40894811C911C85B3805885BB80E81B
:1002A0000E945D0080EA9FE00197F1F780FE0AC09E
:1002B00088E890E00E94760021E0C22ED12C00E078
:1002C00010E00FC089E790E0F5CF0894A11CB11CA5
:1002D00081E9A81681E0B80624F0CC24DD24AA2404
:1002E000BB248CB59DB589559B4128F00894E11C31
:1002F000F11C1DBC1CBCC70164E670E00E94DD015E
:10030000892BC9F488EA0E945D00C1018E199F09FA
:1003100064E670E00E94DD01CB01B3014AE050E0E9
:100320000E940402C3010E947600C2010197F1F706
:1003300080E80E945D0084EFE81681E0F8060CF486
:100340009DCF81E00E945D0080EA9FE00197F1F778
:1003500000E010E06E010894C11CD11C98ECA92E9D
:10036000B12C80E8F82EF00E8F2D0E945D0087E9F9
:1003700090E00E947600C801B6014AE050E00E9479
:10038000040289EB0E945D00C6010E94760084EFA2
:1003900091E0F5013197F1F70197D9F78F2D0E9480
:1003A0005D0081EA90E00E9476000F5F1F4F0733E7
:1003B0001105BCF200E010E0D4CF97FB092E072610
:1003C0000AD077FD04D00CD006D000201AF4709526
:1003D00061957F4F0895F6F7909581959F4F089509
:1003E000AA1BBB1B51E107C0AA1FBB1FA617B7075B
:1003F00010F0A61BB70B881F991F5A95A9F7809577
:100400009095BC01CD010895FB019F01E894423015
:10041000C4F04532B4F44A3029F497FB1EF49095A9
:1004200081959F4F642F77270E94F001805D8A336A
:100430000CF0895D8193CB010097A1F716F45DE282
:1004400051931082C9010C942502DC01FC01672F35
:1004500071917723E1F7329704C07C916D9370839B
:0E0460006291AE17BF07C8F30895F894FFCF5E
:10046E00426F6F74696E67002E0020204D4154520A
:10047E0049582D4F53207638004C4544204F4E3F5F
:10048E0020202020596573004C4544204F4E3F20BC
:10049E002020204E6F20004D4154524958204F537A
:0C04AE0000202020202020202020000022
:00000001FF
