:100000000C942A000C9447000C9447000C94470071
:100010000C9447000C9447000C9447000C94470044
:100020000C9447000C9447000C9447000C94470034
:100030000C9447000C9447000C9447000C94470024
:100040000C9447000C9447000C9447000C94470014
:100050000C94470011241FBECFE5D8E0DEBFCDBF12
:1000600010E0A0E6B0E0E6EAF2E002C005900D92F2
:10007000A439B107D9F710E0A4E9B0E001C01D929E
:10008000A639B107E1F70E9483000C9451010C944A
:100090000000959A0000000082B3807C82BB089526
:1000A00017BA979A82B3887F82BB02C00E94490028
:1000B000C799FCCF8FEF87BB08951F93182F0E941D
:1000C000500018BB82B38B7782BB0E94490018BADC
:1000D0001F9108951F93182F0E94500018BB9798E6
:1000E000929A0E94490018BA1F910895CF93DF9306
:1000F000EC0103C021960E946A0088818823D1F711
:10010000DF91CF910895EF92FF920F931F93CF93BA
:10011000DF9381B3846A81BB80E395E70197F1F7B0
:1001200081E00E945D0080EA9FE00197F1F788E39B
:100130000E945D0015E8812F8A95F1F78EE00E94FC
:100140005D001A95F1F700EA1FE0C8ECD0E080E30B
:10015000E82E85E7F82E81E00E945D00C801019736
:10016000F1F780E690E00E94760084EF91E0FE01D6
:100170003197F1F70197D9F788E690E00E94760071
:1001800084EF91E0FE013197F1F70197D9F788E606
:1001900090E00E94760084EF91E0FE013197F1F744
:1001A0000197D9F788E690E00E94760088EE93E008
:1001B000FE013197F1F70197D9F781E00E945D00C8
:1001C000C8010197F1F78AE690E00E94760084EF7B
:1001D00091E0FE013197F1F70197D9F788E690E0B9
:1001E0000E94760084EF91E0FE013197F1F70197CC
:1001F000D9F788E690E00E94760084EF91E0FE0156
:100200003197F1F70197D9F788E690E00E947600E0
:1002100080ED97E0FE013197F1F70197D9F71AC009
:1002200081E00E945D00C8010197F1F78091940080
:100230009091950087589F4F0E947600C7010197C3
:10024000F1F780919400909195000196909395001C
:10025000809394008091940090919500853691054B
:10026000FCF2109295001092940081E00E945D00D3
:10027000C8010197F1F78BE790E00E94760088EBC8
:100280009BE0FE013197F1F70197D9F781E00E94D9
:100290005D0088EB9BE0FE013197F1F70197D9F7FC
:0602A0005ACFF894FFCFD5
:1002A600426F6F74696E67002E004C6F6164696EF1
:1002B60067204B65726E656C002000202020202090
:1002C600204D41545249582D4F53207631302E340B
:0402D6002E350000C1
:00000001FF
